:100269003F065B4F666D7D077F6F777C395E7971DD
:040284000210000064
:0B027900EF1FAC0670011E4C70F62257
:10008F0075900FE590640F60757FE87E031202791B
:10009F00E590640F606875900FAF90EF24F56012D4
:1000AF0024FE601614601B2407701DE4F510F51173
:1000BF008016751000751101800E751000751102F4
:1000CF0080067510007511037590F0AF90EF2450F6
:1000DF00601424E0601424F060142470701B8510E9
:1000EF001085111180137404800674088002740C3B
:0F00FF002511F511E43510F510E590B4F0FB2252
:10018400AC10AD11AE10AF111201F1AB07AA067C91
:10019400007D0A12020374692DF58274023CF58312
:1001A400E493F5087C007D0AAF03AE021202037CDF
:1001B400007D0A12020374692DF58274023CF583F2
:1001C400E493F509AE02AF037C007D64120203746C
:1001D400692FF58274023EF583E493F50A9002696F
:0C01E400E493F50BF50CF50DF50EF50F8E
:0101F00022EC
:10010E00E4FBFAEA7053EBB40800504D900121F86D
:10011E0028287302013902013D02014502014902FC
:10012E00015102015502015D020161C2A28002D29B
:10013E00A2C2A3C2A48022C2A28002D2A2D2A3C211
:10014E00A48016C2A28002D2A2C2A3D2A4800AC2E6
:10015E00A28002D2A2D2A3D2A474082BF8E6F58014
:10016E007F647E00120279E4F5800BBB00010AEB7E
:05017E0064084A708EC8
:010183002259
:10025800D2A2D2A3D2A412018412010E12008F805E
:01026800F5A0
:03000000020003F8
:0C000300787FE4F6D8FD75811102004AF8
:1001F100EF8DF0A4A8F0CF8CF0A428CE8DF0A42E22
:02020100FE22DB
:10020300BC000BBE0029EF8DF084FFADF022E4CCDF
:10021300F875F008EF2FFFEE33FEEC33FCEE9DECA8
:10022300984005FCEE9DFE0FD5F0E9E4CEFD22EDEE
:10023300F8F5F0EE8420D21CFEADF075F008EF2F38
:10024300FFED33FD4007985006D5F0F222C398FD29
:050253000FD5F0EA22C6
:10000F00020258E493A3F8E493A34003F68001F2AD
:10001F0008DFF48029E493A3F85407240CC8C333F2
:10002F00C4540F4420C8834004F456800146F6DFC1
:10003F00E4800B0102040810204080900284E47ECB
:10004F00019360BCA3FF543F30E509541FFEE493B6
:10005F00A360010ECF54C025E060A840B8E493A37D
:10006F00FAE493A3F8E493A3C8C582C8CAC583CAA8
:10007F00F0A3C8C582C8CAC583CADFE9DEE780BE60
:010288000075
:00000001FF
