:100129003F065B4F666D7D077F6F777C395E79711E
:0401440002080000AD
:0B013900EF1FAC0670011E4C70F62298
:10008F0075900FE590640F60757FE87E031201395C
:10009F00E590640F606875900FAF90EF24F56012D4
:1000AF0024FE601614601B2407701DE4F508F50983
:1000BF008016750800750901800E75080075090214
:1000CF0080067508007509037590F0AF90EF245006
:1000DF00601424E0601424F060142470701B8508F1
:1000EF000885090980137404800674088002740C53
:0F00FF002509F509E43508F508E590B4F0FB2272
:10010E00D2A2D2A3D2A474292509F582740135088E
:0B011E00F583E493F58012008F80EB66
:03000000020003F8
:0C000300787FE4F6D8FD75810902004A00
:10000F0002010EE493A3F8E493A34003F68001F2F8
:10001F0008DFF48029E493A3F85407240CC8C333F2
:10002F00C4540F4420C8834004F456800146F6DFC1
:10003F00E4800B0102040810204080900144E47E0C
:10004F00019360BCA3FF543F30E509541FFEE493B6
:10005F00A360010ECF54C025E060A840B8E493A37D
:10006F00FAE493A3F8E493A3C8C582C8CAC583CAA8
:10007F00F0A3C8C582C8CAC583CADFE9DEE780BE60
:0101480000B6
:00000001FF
