:0B012500020B000002080000010AFEAF
:10011500D2AF758901D2A9D28C758CDC758A05227E
:03000B00020102ED
:10010200C0E0758CDC758A05050CE50C7002050BE8
:03011200D0E03208
:10009A00120115E50C640A450B702AC3E509940799
:1000AA00E5089400501F850AA0AF0A7801EF08807E
:1000BA000123D8FDF50AE4F50BF50C0509E50970ED
:1000CA002905088025E50C640A450B701D850AA0E0
:1000DA00AF0A7801EF08800103D8FDF50AE4F50BB1
:1000EA00F50C0509E50970020508E509640E4508DD
:0800FA0070A1F508F509809BD7
:0300000002000EED
:0C000E00787FE4F6D8FD75810C020055E7
:10001A0002009AE493A3F8E493A34003F68001F262
:10002A0008DFF48029E493A3F85407240CC8C333E7
:10003A00C4540F4420C8834004F456800146F6DFB6
:10004A00E4800B0102040810204080900125E47E20
:10005A00019360BCA3FF543F30E509541FFEE493AB
:10006A00A360010ECF54C025E060A840B8E493A372
:10007A00FAE493A3F8E493A3C8C582C8CAC583CA9D
:10008A00F0A3C8C582C8CAC583CADFE9DEE780BE55
:0101300000CE
:00000001FF
