:10014F003F065B4F666D7D077F6F777C395E7971F8
:04016A000208000087
:0B015F00EF1FAC0670011E4C70F62272
:10000300E4FBFAEA701CEB14600E14600F1460102A
:100013002403700E797F800A79BF800679DF80021E
:1000230079EF8990E590540FFD640F60697FE87E56
:100033000312015FED640F605DAF05ED24F5601DF4
:1000430024FE602914603624077046EBAE02780262
:10005300C333CE33CED8F9F5098E088034EBAE0224
:100063007802C333CE33CED8F92401801EEBAE021F
:100073007802C333CE33CED8F92402800EEBAE021E
:100083007802C333CE33CED8F92403F509E43EF521
:1000930008E590B501FB0BBB00010AEB64044A6061
:0400A300030200064E
:0100A7002236
:10013400D2A2D2A3D2A4744F2509F5827401350842
:0B014400F583E493F58012000380EBCC
:030000000200A853
:0C00A800787FE4F6D8FD7581090200EFB6
:1000B400020134E493A3F8E493A34003F68001F22D
:1000C40008DFF48029E493A3F85407240CC8C3334D
:1000D400C4540F4420C8834004F456800146F6DF1C
:1000E400E4800B010204081020408090016AE47E41
:1000F400019360BCA3FF543F30E509541FFEE49311
:10010400A360010ECF54C025E060A840B8E493A3D7
:10011400FAE493A3F8E493A3C8C582C8CAC583CA02
:10012400F0A3C8C582C8CAC583CADFE9DEE780BEBA
:01016E000090
:00000001FF
