:0B008D00EF1FAC0670011E4C70F62245
:10000300E4F583F58275A0FEE4FAFB7FD47EAD129E
:10001300008DAFA07801EF08800123D8FDF5A00B78
:10002300BB00010AEB64074A70E1E4FAFB7FD47E6C
:10003300AD12008DAFA07801EF08800103D8FDF564
:10004300A00BBB00010AEB64074A70E1A3E58264DD
:1000530002458370B075A0FFE4F583F582C3E582A2
:10006300940BE5836480948050967FFE7EFF12009C
:0E0073008D7F2C7E0112008D63A0FFA380DF25
:030000000200817A
:0C008100787FE4F6D8FD758107020003CB
:00000001FF
