:0A0286003F065B4F666D7D077F6F3A
:0C026E000214000002180000021600003C
:0B027B00EF1FAC0670011E4C70F62255
:10025E00D2AF758901D2A9758CDB758AFFD28C223B
:03000B00020215D9
:10021500C0E0758CDB758AFF0515E51570020514C0
:1002250064644514700E0519E519700205187514F6
:1002350000751500E519643C4518700E0517E5179E
:1002450070020516751800751900E51764644516E2
:090255007004F516F517D0E03233
:10000E00E4FBFAAE14AF15FC7D0A1201C08E088F08
:10001E0009AE14AF157C007D0A1201C08C0A8D0B3F
:10002E00AE18AF197C007D0A1201C08E0C8F0DAE7A
:10003E0018AF197C007D0A1201C08C0E8D0FAE1602
:10004E00AF177C007D0A1201C08E108F11AE16AF55
:10005E00177C007D0A1201C08C128D13EA60030218
:10006E00011BEBB40800400302011B900080F8282E
:10007E0028730200980200AA0200BC0200C402000B
:10008E00D60200E80200F3020105C2A2C2A3C2A476
:10009E007486250BF5827402350A806BD2A2C2A338
:1000AE00C2A474862509F582740235088059C2A24D
:1000BE00D2A3C2A4802AD2A2D2A3C2A47486250F30
:1000CE00F5827402350E803FC2A2C2A3D2A47486FA
:1000DE00250DF5827402350C802DD2A2C2A3D2A4B6
:1000EE007580408028C2A2D2A3D2A474862513F5AF
:1000FE0082740235128010D2A2D2A3D2A4748625A5
:10010E0011F58274023510F583E493F5807F647ED9
:10011E000012027BE4F5800BBB00010AEB64084A77
:05012E00600302006AFD
:0101330022A9
:0800030012025E12000E80FBE8
:03000000020134C6
:0C013400787FE4F6D8FD75811902017B8C
:1001C000BC000BBE0029EF8DF084FFADF022E4CC23
:1001D000F875F008EF2FFFEE33FEEC33FCEE9DECEC
:1001E000984005FCEE9DFE0FD5F0E9E4CEFD22ED32
:1001F000F8F5F0EE8420D21CFEADF075F008EF2F7C
:10020000FFED33FD4007985006D5F0F222C398FD6C
:050210000FD5F0EA2209
:10014000020003E493A3F8E493A34003F68001F2D2
:1001500008DFF48029E493A3F85407240CC8C333C0
:10016000C4540F4420C8834004F456800146F6DF8F
:10017000E4800B010204081020408090026EE47EAF
:10018000019360BCA3FF543F30E509541FFEE49384
:10019000A360010ECF54C025E060A840B8E493A34B
:1001A000FAE493A3F8E493A3C8C582C8CAC583CA76
:1001B000F0A3C8C582C8CAC583CADFE9DEE780BE2E
:01027A000083
:00000001FF
