:08000E00020A000002080000D4
:03000B000200E50B
:1000E500C0E0758CD8758AF0050BE50B7002050A22
:0300F500D0E03226
:03001B000200F8E8
:1000F800C0E0758DD8758BF00509E5097002050813
:03010800D0E03212
:1000CB00D2AF758911D2A9D28C758CD8758AF0D222
:0A00DB00ABD28E758DD8758BF02224
:1000AA001200CBE50B640A450A7006F50AF50BB295
:1000BA00A0E5096464450870EAF508F509B2A78065
:0100CA00E253
:0300000002001EDD
:0C001E00787FE4F6D8FD75810B020065C8
:10002A000200AAE493A3F8E493A34003F68001F242
:10003A0008DFF48029E493A3F85407240CC8C333D7
:10004A00C4540F4420C8834004F456800146F6DFA6
:10005A00E4800B010204081020408090000EE47E28
:10006A00019360BCA3FF543F30E509541FFEE4939B
:10007A00A360010ECF54C025E060A840B8E493A362
:10008A00FAE493A3F8E493A3C8C582C8CAC583CA8D
:10009A00F0A3C8C582C8CAC583CADFE9DEE780BE45
:0100160000E9
:00000001FF
