:0400CA000208000028
:1000BA00D2AFD2A9758901D28C758C3C758AB022CF
:03000B0002009A56
:02009A00C0E0C4
:10009C00758C3C758AB00509E50970020508641475
:0B00AC0045087007F508F50963A0FF88
:0300B700D0E03264
:050003001200BA80FEAE
:0300000002000EED
:0C000E00787FE4F6D8FD758109020055EA
:10001A00020003E493A3F8E493A34003F68001F2F9
:10002A0008DFF48029E493A3F85407240CC8C333E7
:10003A00C4540F4420C8834004F456800146F6DFB6
:10004A00E4800B01020408102040809000CAE47E7C
:10005A00019360BCA3FF543F30E509541FFEE493AB
:10006A00A360010ECF54C025E060A840B8E493A372
:10007A00FAE493A3F8E493A3C8C582C8CAC583CA9D
:10008A00F0A3C8C582C8CAC583CADFE9DEE780BE55
:0100CE000031
:00000001FF
