:10037900003F0006005B004F0066006D007D00072E
:10038900007F006F0077007C0039005E0079007102
:02039900000062
:10034C00020B00000209000002220000021D000046
:10035C00021F01B0100D00000000000000000000A2
:0C036C000000000000000108FF0121FE5D
:10039B00D2AF438911D2A9C28CD2ABD28E758CDB72
:0A03AB00758AFF758DDB758BFF224C
:03000B000203CD20
:1003CD00C0E0758CDB758AFF050AE50A7002050928
:0303DD00D0E0323B
:03001B000202FBE3
:1002FB00C0E0C0D0758DDB758BFF050CE50C700273
:10030B00050B051EE51E7002051DC3E520948EE549
:10031B001F94014014E50C640A450B700CF50BF5AA
:10032B000CE52015207002151FD3E520948EE51FD8
:10033B00940150080523E52370020522D0D0D0E0AC
:01034B00327F
:10018500750D00750E40750F00751007751100751A
:10019500127D75130075146DAE1FAF207C007D6454
:1001A5001202A6EF25E0FFEE33FE74792FF5827477
:1001B500033EF583E493F515740193F516AE1FAF71
:1001C500207C007D0A1202A67C007D0A1202A6EDA3
:1001D50025E0FFEC33FE74792FF58274033EF58339
:1001E500E493F517740193F518AE1FAF207C007DDD
:1001F5000A1202A6ED25E0FFEC33FE74792FF58295
:1002050074033EF583E493F519740193F51A751B90
:0502150000751C4022F1
:0B000E00EF1FAC0670011E4C70F622C4
:1000D700E4FBFAFDFCE51E6432451D70258521A071
:1000E700AF217801EF08800123D8FDF5210DBD0070
:1000F700010CED64074C70057521FEFCFDE4F51D50
:10010700F51E120185E4FAFBEA7053EBB4080050C0
:100117004D90011FF828287302013702013B0201A5
:100127004302014702014F02015302015B02015FD3
:10013700D2A28002C2A2D2A3D2A48022D2A28002DB
:10014700C2A2C2A3D2A48016D2A28002C2A2D2A304
:10015700C2A4800AD2A28002C2A2C2A3C2A4EB2573
:10016700E0240DF808E6F5807F647E0012000EE4B7
:0D017700F5800BBB00010AEB64084A708B99
:010184002258
:10001E00D28CE523641E4522700A8508A06308FF72
:10002E00F522F523C3E50A942CE509940150030249
:10003E0000D6E4FAFBEA7075EBB40800506F90003E
:10004E0053F828287302006B02007302007E020030
:10005E008902009102009C0200A70200B2D2A2D235
:10006E00A3D2A48045C2A2D2A3D2A4758076803D2D
:10007E00D2A2C2A3D2A47580798032C2A2C2A3D268
:10008E00A48006D2A2D2A3C2A4758038801FC2A2B9
:10009E00D2A3C2A475803F8014D2A2C2A3C2A475FB
:1000AE0080868009C2A2C2A3C2A47580407F647EEE
:1000BE000012000EE4F5800BBB00010AEB64084A47
:0800CE00600302004302004040
:0100D6002207
:1003B50012039BC3E520948EE51F940140051200AE
:0803C500D780F012001E80EB4E
:0300000002021ADF
:0C021A00787FE4F6D8FD758123020261B4
:1002A600BC000BBE0029EF8DF084FFADF022E4CC3C
:1002B600F875F008EF2FFFEE33FEEC33FCEE9DEC05
:1002C600984005FCEE9DFE0FD5F0E9E4CEFD22ED4B
:1002D600F8F5F0EE8420D21CFEADF075F008EF2F95
:1002E600FFED33FD4007985006D5F0F222C398FD86
:0502F6000FD5F0EA2223
:100226000203B5E493A3F8E493A34003F68001F236
:1002360008DFF48029E493A3F85407240CC8C333D9
:10024600C4540F4420C8834004F456800146F6DFA8
:10025600E4800B010204081020408090034CE47EE9
:10026600019360BCA3FF543F30E509541FFEE4939D
:10027600A360010ECF54C025E060A840B8E493A364
:10028600FAE493A3F8E493A3C8C582C8CAC583CA8F
:10029600F0A3C8C582C8CAC583CADFE9DEE780BE47
:010378000084
:00000001FF
