:1000CC003F065B4F666D7D077F6F777C395E79717C
:0400E700020800000B
:0B00DC00EF1FAC0670011E4C70F622F6
:10008F007590F7E59054F0FB7A0064F060137FE809
:10009F007E031200DCEB64F06007B2A0E590B4F7CA
:0100AF00FB55
:0100B000222D
:1000B100D2A2D2A3D2A474CC2509F582740035084A
:0B00C100F583E493F58012008F80EBC4
:03000000020003F8
:0C000300787FE4F6D8FD75810902004A00
:10000F000200B1E493A3F8E493A34003F68001F256
:10001F0008DFF48029E493A3F85407240CC8C333F2
:10002F00C4540F4420C8834004F456800146F6DFC1
:10003F00E4800B01020408102040809000E7E47E6A
:10004F00019360BCA3FF543F30E509541FFEE493B6
:10005F00A360010ECF54C025E060A840B8E493A37D
:10006F00FAE493A3F8E493A3C8C582C8CAC583CAA8
:10007F00F0A3C8C582C8CAC583CADFE9DEE780BE60
:0100EB000014
:00000001FF
