:1000B0003F065B4F666D7D077F6F777C395E797198
:0100C000003F
:0B00CD00EF1FAC0670011E4C70F62205
:10000300E4F508F509F50AF50BF508F50974B025CB
:1000130009F58274003508F583E493F580E4F50A65
:10002300F50BE50A7054E50BB40800504D9000370A
:10003300F828287302004F02005302005B02005F9E
:1000430002006702006B020073020077C2A2800203
:10005300D2A2C2A3C2A48022C2A28002D2A2D2A3ED
:10006300C2A48016C2A28002D2A2C2A3D2A4800AD2
:10007300C2A28002D2A2D2A3D2A47F107E271200F2
:10008300CD050BE50B7002050AC39408E50A6480ED
:100093009480408E0509E50970020508C39410E5B4
:0D00A30008648094805003020010020003E6
:030000000200C13A
:0C00C100787FE4F6D8FD75810B02000387
:00000001FF
