:1000D4003F065B4F666D7D077F6F777C395E797174
:0400EF00020C0000FF
:0B00E400EF1FAC0670011E4C70F622EE
:10008F00E4F508F50920B1217FE87E031200E42092
:10009F00B117B2A0050DE50D7002050C6410450CEB
:0900AF007004F50CF50D30B1FDF3
:0100B8002225
:1000B900D2A2D2A3D2A474D4250DF5827400350C32
:0B00C900F583E493F58012008F80EBBC
:03000000020003F8
:0C000300787FE4F6D8FD75810D02004AFC
:10000F000200B9E493A3F8E493A34003F68001F24E
:10001F0008DFF48029E493A3F85407240CC8C333F2
:10002F00C4540F4420C8834004F456800146F6DFC1
:10003F00E4800B01020408102040809000EFE47E62
:10004F00019360BCA3FF543F30E509541FFEE493B6
:10005F00A360010ECF54C025E060A840B8E493A37D
:10006F00FAE493A3F8E493A3C8C582C8CAC583CAA8
:10007F00F0A3C8C582C8CAC583CADFE9DEE780BE60
:0100F300000C
:00000001FF
