:0B011500020B000002080000010AFEBF
:10010500D2AF758901D2A9D28C758CDC758A05228E
:03000B000200F2FE
:1000F200C0E0758CDC758A05050CE50C7002050BF9
:03010200D0E03218
:10009A00120105E50C6432450B70F8F50BF50C05F9
:1000AA0009E5097002050820E039C39410E50894AF
:1000BA00005012850AA0AF0A7801EF08800123D800
:1000CA00FDF50A8010850AA0AF0A7801EF088001C1
:1000DA0003D8FDF50AE509641C450870B6F508F56C
:0800EA000980B075A0FF80AB96
:0300000002000EED
:0C000E00787FE4F6D8FD75810C020055E7
:10001A0002009AE493A3F8E493A34003F68001F262
:10002A0008DFF48029E493A3F85407240CC8C333E7
:10003A00C4540F4420C8834004F456800146F6DFB6
:10004A00E4800B0102040810204080900115E47E30
:10005A00019360BCA3FF543F30E509541FFEE493AB
:10006A00A360010ECF54C025E060A840B8E493A372
:10007A00FAE493A3F8E493A3C8C582C8CAC583CA9D
:10008A00F0A3C8C582C8CAC583CADFE9DEE780BE55
:0101200000DE
:00000001FF
