:0B00E200EF1FAC0670011E4C70F622F0
:080076008E0D8F0E8C0F8D1012
:10007E007F017E00E4FBFAC3EB9510E50F6480F878
:10008E00EA648098500EAC0DAD0E1200C40BBB008E
:04009E00010A80E3F0
:0100A200223B
:030003000200A355
:1000A300C0E0C0D075D000C004C006C007B2957FC1
:1000B300647E001200E2D007D006D004D0D0D0E096
:0100C300320A
:06000600D2AFD2A8D2889F
:10000C00750CFEE4F50AF50B850CA0E4F508F50972
:10001C00C37408950BFFE4950AFEC3E5099FE50838
:10002C009E501E7F107E271200E2AFA07801EF08D1
:10003C00800123D8FDF5A00509E50970D3050880DA
:10004C00CFE50B2401FDE4350AFC7F027E00120093
:10005C0076C3E50C9FF50C050BE50B7002050AC386
:0A006C009408E50A940040A0809675
:030000000200D625
:0C00D600787FE4F6D8FD7581100200066A
:1000C400EF8DF0A4A8F0CF8CF0A428CE8DF0A42E50
:0200D400FE220A
:00000001FF
