:0E026E00C3502710138809C404E2027101F482
:03000B000200EC04
:1000EC00C0E0C0F0C083C082C0D075D000C000C0DA
:1000FC0001C002C003C004C005C006C007E5092545
:10010C00E0246EF582E43402F583E493FE740193EB
:10011C00FBE4C39BFFE49EFE74019400FDE4940099
:10012C00FCE4FB7A01F9F81201FA8F8CE50925E061
:10013C00246EF582E43402F583E493FE740193FBA0
:10014C00E4C39BFFE49EFE74019400FDE49400FC68
:10015C00E4FB7A01F9F81201FAAF038F8A0508D093
:10016C0007D006D005D004D003D002D001D000D0E7
:0A017C00D0D082D083D0F0D0E03262
:03001B0002027C62
:09027C00758D3C758BB0050A324A
:10018600D2AFD2A9D2AB758911E50925E0246EF567
:1001960082E43402F583E493FE740193FBE4C39B8B
:1001A600FFE49EFE74019400FDE49400FCE4FB7AF7
:1001B60001F9F81201FA8F8CE50925E0246EF58223
:1001C600E43402F583E493FE740193FBE4C39BFFDE
:1001D600E49EFE74019400FDE49400FCE4FB7A01C5
:1001E600F9F81201FAAF038F8A758D3C758BB0D280
:0401F6008CD28E22F7
:10023E00E4F508F509C295F50A120186E508D3948E
:10024E000040F9C28CE4F508B295E50AB40605053E
:10025E0009E4F50AE509B40703E4F509D28C80DC5C
:0300000002000EED
:0C000E00787FE4F6D8FD75810A02023EFE
:1001FA00C2D5E830E70FB2D5E4C39BFBE49AFAE430
:10020A0099F9E498F8EC30E717B2D51202301200E7
:10021A005AE4C39BFBE49AFAE499F9E498F8800358
:10022A0012005A30D50DE4C39FFFE49EFEE49DFD03
:04023A00E49CFC2222
:10001E0075F008758200EF2FFFEE33FECD33CDCC99
:10002E0033CCC58233C5829BED9AEC99E58298401C
:10003E000CF582EE9BFEED9AFDEC99FC0FD5F0D6F9
:10004E00E4CEFBE4CDFAE4CCF9A88222B800C1B923
:10005E000059BA002DEC8BF084CFCECDFCE5F0CB61
:10006E00F97818EF2FFFEE33FEED33FDEC33FCEB9A
:10007E0033FB10D703994004EB99FB0FD8E5E4F955
:10008E00FA227818EF2FFFEE33FEED33FDEC33FC42
:10009E00C933C910D7059BE99A4007EC9BFCE99A36
:1000AE00F90FD8E0E4C9FAE4CCFB2275F010EF2F7B
:1000BE00FFEE33FEED33FDCC33CCC833C810D7077B
:1000CE009BEC9AE899400AED9BFDEC9AFCE899F8B6
:0E00DE000FD5F0DAE4CDFBE4CCFAE4C8F92249
:00000001FF
