:0B00C100EF1FAC0670011E4C70F62211
:080076008E0D8F0E8C0F8D1012
:10007E007F017E00E4FBFAC3EB9510E50F6480F878
:10008E00EA648098500EAC0DAD0E1200A30BBB00AF
:04009E00010A80E3F0
:0100A200223B
:09000300E4F508F509F50AF50B16
:10000C00750CFEE4F508F509850CA0E4F50AF50B72
:10001C00C374089509FFE49508FEC3E50B9FE50A38
:10002C009E501E74FFFFFE1200C1AFA07801EF08B6
:10003C00800123D8FDF5A0050BE50B70D3050A80D4
:10004C00CFE5092401FDE43508FC7F027E00120097
:10005C0076C3E50C9FF50C0509E50970020508C38C
:0A006C009408E508940040A0809677
:030000000200B546
:0C00B500787FE4F6D8FD7581100200038E
:1000A300EF8DF0A4A8F0CF8CF0A428CE8DF0A42E71
:0200B300FE222B
:00000001FF
