:10026C003F065B4F666D7D077F6F777C395E7971DA
:0C028A000214000002080000020A00003C
:0B029700EF1FAC0670011E4C70F62239
:10025C00D2AF758901D2A9D28C758CDB758AFF223D
:03000B00020202EC
:10020200C0E0758CDB758AFF0515E51570020514D3
:1002120064644514700CF514F5150509E5097002BE
:100222000508E509643C4508700CF508F509050B5D
:10023200E50B7002050AE50B6464450A7004F50AD1
:05024200F50BD0E032D5
:10000E00AE14AF157C007D0A1201AD746C2DF58215
:10001E0074023CF583E493F50CAE14AF157C007DB1
:10002E000A1201AD746C2FF58274023EF583E493CF
:10003E00F50D750E40AE08AF097C007D0A1201ADBC
:10004E00746C2DF58274023CF583E493F50FAE08C3
:10005E00AF097C007D0A1201AD746C2FF58274021B
:10006E003EF583E493F510751140AE0AAF0B7C009C
:10007E007D0A1201AD746C2DF58274023CF583E499
:10008E0093F512AE0AAF0B7C007D0A1201AD746CB3
:0D009E002FF58274023EF583E493F51322E2
:10013700E4FBFAEA7053EBB40800504D90014AF81B
:1001470028287302016202016602016E020172022F
:10015700017A02017E02018602018AC2A28002D2CE
:10016700A2C2A3C2A48022C2A28002D2A2D2A3C2E8
:10017700A48016C2A28002D2A2C2A3D2A4800AC2BD
:10018700A28002D2A2D2A3D2A4740C2BF8E6F580E7
:100197007F647E00120297E4F5800BBB00010AEB37
:0501A70064084A708E9F
:0101AC002230
:1002470020B1117FE87E0312029720B107C28C30DC
:05025700B1FDD28C2274
:0E027C0012025C12000E12013712024780F5CA
:030000000200AB50
:0C00AB00787FE4F6D8FD7581150200F2A4
:1001AD00BC000BBE0029EF8DF084FFADF022E4CC36
:1001BD00F875F008EF2FFFEE33FEEC33FCEE9DECFF
:1001CD00984005FCEE9DFE0FD5F0E9E4CEFD22ED45
:1001DD00F8F5F0EE8420D21CFEADF075F008EF2F8F
:1001ED00FFED33FD4007985006D5F0F222C398FD80
:0501FD000FD5F0EA221D
:1000B70002027CE493A3F8E493A34003F68001F2E1
:1000C70008DFF48029E493A3F85407240CC8C3334A
:1000D700C4540F4420C8834004F456800146F6DF19
:1000E700E4800B010204081020408090028AE47E1D
:1000F700019360BCA3FF543F30E509541FFEE4930E
:10010700A360010ECF54C025E060A840B8E493A3D4
:10011700FAE493A3F8E493A3C8C582C8CAC583CAFF
:10012700F0A3C8C582C8CAC583CADFE9DEE780BEB7
:010296000067
:00000001FF
