:0400CD000208000025
:1000BD00D2AFD2AB438910D28E758C3C758AB022EB
:03001B000200AA36
:1000AA00C0E0758C3C758AB00509E509700205083F
:0300BA00D0E03261
:100003001200BDE509640A450870F8F508F50963AF
:04001300A0FF80EFDB
:0300000002001EDD
:0C001E00787FE4F6D8FD758109020065CA
:10002A00020003E493A3F8E493A34003F68001F2E9
:10003A0008DFF48029E493A3F85407240CC8C333D7
:10004A00C4540F4420C8834004F456800146F6DFA6
:10005A00E4800B01020408102040809000CDE47E69
:10006A00019360BCA3FF543F30E509541FFEE4939B
:10007A00A360010ECF54C025E060A840B8E493A362
:10008A00FAE493A3F8E493A3C8C582C8CAC583CA8D
:10009A00F0A3C8C582C8CAC583CADFE9DEE780BE45
:0100D100002E
:00000001FF
