:1002A1003F065B4F666D7D077F6F777C395E7971A5
:0C02CE000214000002080000020A0000F8
:0402B1007FE87E0361
:0B02B500EF1FAC0670011E4C70F6221B
:10029100D2AF758901D2A9D28C758CDB758AFF2208
:03000B0002024CA2
:10024C00C0E0758CDB758AFF0515E5157002051489
:10025C0064644514700CF514F5150509E509700274
:10026C000508E509643C4508700CF508F509050B13
:10027C00E50B7002050AE50B6464450A7004F50A87
:05028C00F50BD0E0328B
:10000E00AE14AF157C007D0A1201AD74A12DF582E0
:10001E0074023CF583E493F50CAE14AF157C007DB1
:10002E000A1201AD74A12FF58274023EF583E4939A
:10003E00F50D750E40AE08AF097C007D0A1201ADBC
:10004E0074A12DF58274023CF583E493F50FAE088E
:10005E00AF097C007D0A1201AD74A12FF5827402E6
:10006E003EF583E493F510751140AE0AAF0B7C009C
:10007E007D0A1201AD74A12DF58274023CF583E464
:10008E0093F512AE0AAF0B7C007D0A1201AD74A17E
:0D009E002FF58274023EF583E493F51322E2
:10013700E4FBFAEA7053EBB40800504D90014AF81B
:1001470028287302016202016602016E020172022F
:10015700017A02017E02018602018AC2A28002D2CE
:10016700A2C2A3C2A48022C2A28002D2A2D2A3C2E8
:10017700A48016C2A28002D2A2C2A3D2A4800AC2BD
:10018700A28002D2A2D2A3D2A4740C2BF8E6F580E7
:100197007F647E001202B5E4F5800BBB00010AEB19
:0501A70064084A708E9F
:0101AC002230
:1002020020B10D1202B120B107C28C30B1FDD28CE7
:1002120020B00B1202B120B005C28C30B0FD20B26A
:100222000B1202B120B205D28C30B2FD20B31A12E9
:1002320002B120B31430B3FDC28CE4F514F515F508
:0A02420008F509F50AF50BD28C222D
:0E02C00012029112000E12013712020280F596
:030000000200AB50
:0C00AB00787FE4F6D8FD7581150200F2A4
:1001AD00BC000BBE0029EF8DF084FFADF022E4CC36
:1001BD00F875F008EF2FFFEE33FEEC33FCEE9DECFF
:1001CD00984005FCEE9DFE0FD5F0E9E4CEFD22ED45
:1001DD00F8F5F0EE8420D21CFEADF075F008EF2F8F
:1001ED00FFED33FD4007985006D5F0F222C398FD80
:0501FD000FD5F0EA221D
:1000B7000202C0E493A3F8E493A34003F68001F29D
:1000C70008DFF48029E493A3F85407240CC8C3334A
:1000D700C4540F4420C8834004F456800146F6DF19
:1000E700E4800B01020408102040809002CEE47ED9
:1000F700019360BCA3FF543F30E509541FFEE4930E
:10010700A360010ECF54C025E060A840B8E493A3D4
:10011700FAE493A3F8E493A3C8C582C8CAC583CAFF
:10012700F0A3C8C582C8CAC583CADFE9DEE780BEB7
:0102DA000023
:00000001FF
