:03000000020003F8
:0C000300787FE4F6D8FD75810902004A00
:10011F003F065B4F666D7D077F6F777C395E797128
:01012F0000CF
:04013B0002080000B6
:0B013000EF1FAC0670011E4C70F622A1
:10008F00741F2509F58274013508F583E493F58013
:10009F00E4FDE4FBEBB40800504D9000B0F82828C5
:1000AF00730200C80200CC0200D40200D80200E0A4
:1000BF000200E40200EC0200F0D2A28002C2A2D23F
:1000CF00A3D2A48022D2A28002C2A2C2A3D2A480B1
:1000DF0016D2A28002C2A2D2A3C2A4800AD2A28048
:1000EF0002C2A2C2A3C2A47F647E001201300BBB66
:0800FF0008A20DED6432709AB5
:0101070022D5
:1001080012008F0509E5097002050864104508709A
:07011800EFF508F50980E98D
:10000F00020108E493A3F8E493A34003F68001F2FE
:10001F0008DFF48029E493A3F85407240CC8C333F2
:10002F00C4540F4420C8834004F456800146F6DFC1
:10003F00E4800B010204081020408090013BE47E15
:10004F00019360BCA3FF543F30E509541FFEE493B6
:10005F00A360010ECF54C025E060A840B8E493A37D
:10006F00FAE493A3F8E493A3C8C582C8CAC583CAA8
:10007F00F0A3C8C582C8CAC583CADFE9DEE780BE60
:01013F0000BF
:00000001FF
